{
  "contractName": "Mapping",
  "abi": [
    {
      "constant": false,
      "inputs": [
        {
          "internalType": "address",
          "name": "user_addr",
          "type": "address"
        },
        {
          "internalType": "address",
          "name": "channel_addr",
          "type": "address"
        },
        {
          "internalType": "string",
          "name": "nickname",
          "type": "string"
        }
      ],
      "name": "set",
      "outputs": [],
      "payable": false,
      "stateMutability": "nonpayable",
      "type": "function"
    },
    {
      "constant": true,
      "inputs": [
        {
          "internalType": "address",
          "name": "user_addr",
          "type": "address"
        }
      ],
      "name": "get",
      "outputs": [
        {
          "components": [
            {
              "internalType": "address",
              "name": "channel",
              "type": "address"
            },
            {
              "internalType": "string",
              "name": "nickname",
              "type": "string"
            }
          ],
          "internalType": "struct Mapping.data[]",
          "name": "",
          "type": "tuple[]"
        }
      ],
      "payable": false,
      "stateMutability": "view",
      "type": "function"
    },
    {
      "constant": false,
      "inputs": [
        {
          "internalType": "address",
          "name": "party",
          "type": "address"
        },
        {
          "internalType": "address",
          "name": "channel",
          "type": "address"
        }
      ],
      "name": "del",
      "outputs": [],
      "payable": false,
      "stateMutability": "nonpayable",
      "type": "function"
    }
  ],
  "bytecode": "0x608060405234801561001057600080fd5b50610d40806100206000396000f3fe608060405234801561001057600080fd5b50600436106100415760003560e01c8063615e159014610046578063a29263d814610062578063c2bc2efc1461007e575b600080fd5b610060600480360361005b91908101906109e0565b6100ae565b005b61007c60048036036100779190810190610a1c565b61046d565b005b610098600480360361009391908101906109b7565b61058d565b6040516100a59190610b91565b60405180910390f35b60008090505b6000808473ffffffffffffffffffffffffffffffffffffffff1673ffffffffffffffffffffffffffffffffffffffff16815260200190815260200160002080549050811015610468578173ffffffffffffffffffffffffffffffffffffffff166000808573ffffffffffffffffffffffffffffffffffffffff1673ffffffffffffffffffffffffffffffffffffffff168152602001908152602001600020828154811061015d57fe5b906000526020600020906002020160000160009054906101000a900473ffffffffffffffffffffffffffffffffffffffff1673ffffffffffffffffffffffffffffffffffffffff16141561045b576000808473ffffffffffffffffffffffffffffffffffffffff1673ffffffffffffffffffffffffffffffffffffffff16815260200190815260200160002060016000808673ffffffffffffffffffffffffffffffffffffffff1673ffffffffffffffffffffffffffffffffffffffff16815260200190815260200160002080549050038154811061023857fe5b90600052602060002090600202016000808573ffffffffffffffffffffffffffffffffffffffff1673ffffffffffffffffffffffffffffffffffffffff168152602001908152602001600020828154811061028f57fe5b90600052602060002090600202016000820160009054906101000a900473ffffffffffffffffffffffffffffffffffffffff168160000160006101000a81548173ffffffffffffffffffffffffffffffffffffffff021916908373ffffffffffffffffffffffffffffffffffffffff1602179055506001820181600101908054600181600116156101000203166002900461032b929190610722565b509050506000808473ffffffffffffffffffffffffffffffffffffffff1673ffffffffffffffffffffffffffffffffffffffff16815260200190815260200160002060016000808673ffffffffffffffffffffffffffffffffffffffff1673ffffffffffffffffffffffffffffffffffffffff1681526020019081526020016000208054905003815481106103bc57fe5b9060005260206000209060020201600080820160006101000a81549073ffffffffffffffffffffffffffffffffffffffff021916905560018201600061040291906107a9565b50506000808473ffffffffffffffffffffffffffffffffffffffff1673ffffffffffffffffffffffffffffffffffffffff16815260200190815260200160002080548091906001900361045591906107f1565b50610468565b80806001019150506100b4565b505050565b610475610823565b82816000019073ffffffffffffffffffffffffffffffffffffffff16908173ffffffffffffffffffffffffffffffffffffffff16815250508181602001819052506000808573ffffffffffffffffffffffffffffffffffffffff1673ffffffffffffffffffffffffffffffffffffffff168152602001908152602001600020819080600181540180825580915050906001820390600052602060002090600202016000909192909190915060008201518160000160006101000a81548173ffffffffffffffffffffffffffffffffffffffff021916908373ffffffffffffffffffffffffffffffffffffffff1602179055506020820151816001019080519060200190610583929190610853565b5050505050505050565b60606000808373ffffffffffffffffffffffffffffffffffffffff1673ffffffffffffffffffffffffffffffffffffffff168152602001908152602001600020805480602002602001604051908101604052809291908181526020016000905b8282101561071757838290600052602060002090600202016040518060400160405290816000820160009054906101000a900473ffffffffffffffffffffffffffffffffffffffff1673ffffffffffffffffffffffffffffffffffffffff1673ffffffffffffffffffffffffffffffffffffffff168152602001600182018054600181600116156101000203166002900480601f0160208091040260200160405190810160405280929190818152602001828054600181600116156101000203166002900480156106ff5780601f106106d4576101008083540402835291602001916106ff565b820191906000526020600020905b8154815290600101906020018083116106e257829003601f168201915b505050505081525050815260200190600101906105ed565b505050509050919050565b828054600181600116156101000203166002900490600052602060002090601f016020900481019282601f1061075b5780548555610798565b8280016001018555821561079857600052602060002091601f016020900482015b8281111561079757825482559160010191906001019061077c565b5b5090506107a591906108d3565b5090565b50805460018160011615610100020316600290046000825580601f106107cf57506107ee565b601f0160209004906000526020600020908101906107ed91906108d3565b5b50565b81548183558181111561081e5760020281600202836000526020600020918201910161081d91906108f8565b5b505050565b6040518060400160405280600073ffffffffffffffffffffffffffffffffffffffff168152602001606081525090565b828054600181600116156101000203166002900490600052602060002090601f016020900481019282601f1061089457805160ff19168380011785556108c2565b828001600101855582156108c2579182015b828111156108c15782518255916020019190600101906108a6565b5b5090506108cf91906108d3565b5090565b6108f591905b808211156108f15760008160009055506001016108d9565b5090565b90565b61094b91905b8082111561094757600080820160006101000a81549073ffffffffffffffffffffffffffffffffffffffff021916905560018201600061093e91906107a9565b506002016108fe565b5090565b90565b60008135905061095d81610ce6565b92915050565b600082601f83011261097457600080fd5b813561098761098282610be0565b610bb3565b915080825260208301602083018583830111156109a357600080fd5b6109ae838284610c93565b50505092915050565b6000602082840312156109c957600080fd5b60006109d78482850161094e565b91505092915050565b600080604083850312156109f357600080fd5b6000610a018582860161094e565b9250506020610a128582860161094e565b9150509250929050565b600080600060608486031215610a3157600080fd5b6000610a3f8682870161094e565b9350506020610a508682870161094e565b925050604084013567ffffffffffffffff811115610a6d57600080fd5b610a7986828701610963565b9150509250925092565b6000610a8f8383610b54565b905092915050565b610aa081610c61565b82525050565b6000610ab182610c1c565b610abb8185610c3f565b935083602082028501610acd85610c0c565b8060005b85811015610b095784840389528151610aea8582610a83565b9450610af583610c32565b925060208a01995050600181019050610ad1565b50829750879550505050505092915050565b6000610b2682610c27565b610b308185610c50565b9350610b40818560208601610ca2565b610b4981610cd5565b840191505092915050565b6000604083016000830151610b6c6000860182610a97565b5060208301518482036020860152610b848282610b1b565b9150508091505092915050565b60006020820190508181036000830152610bab8184610aa6565b905092915050565b6000604051905081810181811067ffffffffffffffff82111715610bd657600080fd5b8060405250919050565b600067ffffffffffffffff821115610bf757600080fd5b601f19601f8301169050602081019050919050565b6000819050602082019050919050565b600081519050919050565b600081519050919050565b6000602082019050919050565b600082825260208201905092915050565b600082825260208201905092915050565b6000610c6c82610c73565b9050919050565b600073ffffffffffffffffffffffffffffffffffffffff82169050919050565b82818337600083830152505050565b60005b83811015610cc0578082015181840152602081019050610ca5565b83811115610ccf576000848401525b50505050565b6000601f19601f8301169050919050565b610cef81610c61565b8114610cfa57600080fd5b5056fea365627a7a72315820262fc4a56ddc184924ad7960a3703343d085717490ae44791a2d703e6071882a6c6578706572696d656e74616cf564736f6c63430005100040",
  "source": "pragma solidity ^0.5.0;\r\npragma experimental ABIEncoderV2;\r\n\r\n\r\ncontract Mapping {\r\n    struct data {\r\n      address channel;\r\n      string nickname;\r\n  }\r\n  mapping(address => data[]) private user_channel;\r\n\r\n  function set(address user_addr, address channel_addr, string memory nickname) public{\r\n    data memory element;\r\n    element.channel = channel_addr;\r\n    element.nickname = nickname;\r\n    user_channel[user_addr].push(element);\r\n  }\r\n\r\n  function get(address user_addr) public view returns (data[] memory) {\r\n    return user_channel[user_addr];\r\n  }\r\n\r\n  function del(address party, address channel) public{\r\n    for(uint i = 0; i < user_channel[party].length; i++){\r\n      if (user_channel[party][i].channel == channel){\r\n        user_channel[party][i] = user_channel[party][user_channel[party].length-1];\r\n        delete user_channel[party][user_channel[party].length-1];\r\n        user_channel[party].length--;\r\n        break;\r\n      }\r\n    }\r\n  }\r\n\r\n}\r\n",
  "sourcePath": "D:\\Austin\\blockchain\\project\\splitcoinwise\\contracts\\mapping.sol",
  "compiler": {
    "name": "solc",
    "version": "0.5.16+commit.9c3226ce.Emscripten.clang"
  },
  "schemaVersion": "3.4.7",
  "updatedAt": "2022-05-01T00:00:16.883Z",
  "networkType": "ethereum",
  "devdoc": {
    "methods": {}
  },
  "userdoc": {
    "methods": {}
  }
}