{
  "contractName": "SimplePaymentChannel",
  "abi": [
    {
      "inputs": [
        {
          "internalType": "address",
          "name": "_t",
          "type": "address"
        },
        {
          "internalType": "string",
          "name": "groupname",
          "type": "string"
        }
      ],
      "payable": true,
      "stateMutability": "payable",
      "type": "constructor"
    },
    {
      "anonymous": false,
      "inputs": [
        {
          "indexed": false,
          "internalType": "uint256",
          "name": "member1Balance",
          "type": "uint256"
        },
        {
          "indexed": false,
          "internalType": "uint256",
          "name": "member2Balance",
          "type": "uint256"
        }
      ],
      "name": "ChannelClosed",
      "type": "event"
    },
    {
      "anonymous": false,
      "inputs": [
        {
          "indexed": false,
          "internalType": "address",
          "name": "user",
          "type": "address"
        },
        {
          "indexed": false,
          "internalType": "uint256",
          "name": "deposit",
          "type": "uint256"
        }
      ],
      "name": "ChannelOpened_1",
      "type": "event"
    },
    {
      "anonymous": false,
      "inputs": [
        {
          "indexed": false,
          "internalType": "address",
          "name": "user",
          "type": "address"
        },
        {
          "indexed": false,
          "internalType": "uint256",
          "name": "deposit",
          "type": "uint256"
        }
      ],
      "name": "ChannelOpened_2",
      "type": "event"
    },
    {
      "anonymous": false,
      "inputs": [
        {
          "indexed": false,
          "internalType": "bytes32",
          "name": "message",
          "type": "bytes32"
        },
        {
          "indexed": false,
          "internalType": "address",
          "name": "recover",
          "type": "address"
        },
        {
          "indexed": false,
          "internalType": "address",
          "name": "shouldbe",
          "type": "address"
        }
      ],
      "name": "Checkpassed",
      "type": "event"
    },
    {
      "anonymous": false,
      "inputs": [
        {
          "indexed": false,
          "internalType": "address",
          "name": "sender",
          "type": "address"
        },
        {
          "indexed": false,
          "internalType": "address",
          "name": "receiver",
          "type": "address"
        },
        {
          "indexed": false,
          "internalType": "uint256",
          "name": "amount",
          "type": "uint256"
        }
      ],
      "name": "coinsent",
      "type": "event"
    },
    {
      "constant": true,
      "inputs": [
        {
          "internalType": "address",
          "name": "",
          "type": "address"
        }
      ],
      "name": "balances",
      "outputs": [
        {
          "internalType": "uint256",
          "name": "",
          "type": "uint256"
        }
      ],
      "payable": false,
      "stateMutability": "view",
      "type": "function"
    },
    {
      "constant": true,
      "inputs": [],
      "name": "deposit",
      "outputs": [
        {
          "internalType": "uint256",
          "name": "",
          "type": "uint256"
        }
      ],
      "payable": false,
      "stateMutability": "view",
      "type": "function"
    },
    {
      "constant": true,
      "inputs": [],
      "name": "isMember1BalanceSetUp",
      "outputs": [
        {
          "internalType": "bool",
          "name": "",
          "type": "bool"
        }
      ],
      "payable": false,
      "stateMutability": "view",
      "type": "function"
    },
    {
      "constant": true,
      "inputs": [],
      "name": "isMember2BalanceSetUp",
      "outputs": [
        {
          "internalType": "bool",
          "name": "",
          "type": "bool"
        }
      ],
      "payable": false,
      "stateMutability": "view",
      "type": "function"
    },
    {
      "constant": true,
      "inputs": [],
      "name": "member1",
      "outputs": [
        {
          "internalType": "address payable",
          "name": "",
          "type": "address"
        }
      ],
      "payable": false,
      "stateMutability": "view",
      "type": "function"
    },
    {
      "constant": true,
      "inputs": [],
      "name": "member1Balance",
      "outputs": [
        {
          "internalType": "uint256",
          "name": "",
          "type": "uint256"
        }
      ],
      "payable": false,
      "stateMutability": "view",
      "type": "function"
    },
    {
      "constant": true,
      "inputs": [],
      "name": "member2",
      "outputs": [
        {
          "internalType": "address payable",
          "name": "",
          "type": "address"
        }
      ],
      "payable": false,
      "stateMutability": "view",
      "type": "function"
    },
    {
      "constant": true,
      "inputs": [],
      "name": "member2Balance",
      "outputs": [
        {
          "internalType": "uint256",
          "name": "",
          "type": "uint256"
        }
      ],
      "payable": false,
      "stateMutability": "view",
      "type": "function"
    },
    {
      "constant": true,
      "inputs": [],
      "name": "showdeposit",
      "outputs": [
        {
          "internalType": "uint256",
          "name": "",
          "type": "uint256"
        }
      ],
      "payable": false,
      "stateMutability": "view",
      "type": "function"
    },
    {
      "constant": false,
      "inputs": [],
      "name": "setupmember2",
      "outputs": [],
      "payable": true,
      "stateMutability": "payable",
      "type": "function"
    },
    {
      "constant": false,
      "inputs": [
        {
          "internalType": "uint256",
          "name": "_balance1",
          "type": "uint256"
        },
        {
          "internalType": "uint256",
          "name": "_balance2",
          "type": "uint256"
        },
        {
          "internalType": "bytes",
          "name": "_signedMessage",
          "type": "bytes"
        },
        {
          "internalType": "address",
          "name": "addressOfMessage",
          "type": "address"
        }
      ],
      "name": "closeChannel",
      "outputs": [],
      "payable": false,
      "stateMutability": "nonpayable",
      "type": "function"
    },
    {
      "constant": false,
      "inputs": [
        {
          "internalType": "uint256",
          "name": "_balance1",
          "type": "uint256"
        },
        {
          "internalType": "uint256",
          "name": "_balance2",
          "type": "uint256"
        },
        {
          "internalType": "bytes",
          "name": "_signedMessage",
          "type": "bytes"
        },
        {
          "internalType": "address",
          "name": "addressOfMessage",
          "type": "address"
        }
      ],
      "name": "isValidSignature",
      "outputs": [
        {
          "internalType": "bool",
          "name": "",
          "type": "bool"
        }
      ],
      "payable": false,
      "stateMutability": "nonpayable",
      "type": "function"
    },
    {
      "constant": false,
      "inputs": [
        {
          "internalType": "address",
          "name": "receiver",
          "type": "address"
        },
        {
          "internalType": "uint256",
          "name": "amount",
          "type": "uint256"
        }
      ],
      "name": "sendCoin",
      "outputs": [
        {
          "internalType": "bool",
          "name": "sufficient",
          "type": "bool"
        }
      ],
      "payable": false,
      "stateMutability": "nonpayable",
      "type": "function"
    },
    {
      "constant": true,
      "inputs": [
        {
          "internalType": "address",
          "name": "addr",
          "type": "address"
        }
      ],
      "name": "getBalance",
      "outputs": [
        {
          "internalType": "uint256",
          "name": "",
          "type": "uint256"
        }
      ],
      "payable": false,
      "stateMutability": "view",
      "type": "function"
    }
  ],
  "bytecode": "0x608060405260405162001bde38038062001bde83398181016040526200002991908101906200036c565b816000806101000a81548173ffffffffffffffffffffffffffffffffffffffff021916908373ffffffffffffffffffffffffffffffffffffffff16021790555081600160006101000a81548173ffffffffffffffffffffffffffffffffffffffff021916908373ffffffffffffffffffffffffffffffffffffffff16021790555033600460006101000a81548173ffffffffffffffffffffffffffffffffffffffff021916908373ffffffffffffffffffffffffffffffffffffffff16021790555034600681905550600654600260003373ffffffffffffffffffffffffffffffffffffffff1673ffffffffffffffffffffffffffffffffffffffff168152602001908152602001600020819055508060039080519060200190620001509291906200024a565b506000809054906101000a900473ffffffffffffffffffffffffffffffffffffffff1673ffffffffffffffffffffffffffffffffffffffff1663a29263d83330846040518463ffffffff1660e01b8152600401620001b1939291906200043a565b600060405180830381600087803b158015620001cc57600080fd5b505af1158015620001e1573d6000803e3d6000fd5b505050507fa4c1614f3253efe12eb58d5d47e85bed59f6bb0df05d72ef5bbd2e74d1f1f9db600460009054906101000a900473ffffffffffffffffffffffffffffffffffffffff16346040516200023a9291906200047e565b60405180910390a15050620005fd565b828054600181600116156101000203166002900490600052602060002090601f016020900481019282601f106200028d57805160ff1916838001178555620002be565b82800160010185558215620002be579182015b82811115620002bd578251825591602001919060010190620002a0565b5b509050620002cd9190620002d1565b5090565b620002f691905b80821115620002f2576000816000905550600101620002d8565b5090565b90565b6000815190506200030a81620005e3565b92915050565b600082601f8301126200032257600080fd5b8151620003396200033382620004d9565b620004ab565b915080825260208301602083018583830111156200035657600080fd5b620003638382846200059c565b50505092915050565b600080604083850312156200038057600080fd5b60006200039085828601620002f9565b925050602083015167ffffffffffffffff811115620003ae57600080fd5b620003bc8582860162000310565b9150509250929050565b620003d18162000560565b82525050565b620003e28162000522565b82525050565b6000620003f58262000506565b62000401818562000511565b9350620004138185602086016200059c565b6200041e81620005d2565b840191505092915050565b620004348162000556565b82525050565b6000606082019050620004516000830186620003c6565b620004606020830185620003d7565b8181036040830152620004748184620003e8565b9050949350505050565b6000604082019050620004956000830185620003c6565b620004a4602083018462000429565b9392505050565b6000604051905081810181811067ffffffffffffffff82111715620004cf57600080fd5b8060405250919050565b600067ffffffffffffffff821115620004f157600080fd5b601f19601f8301169050602081019050919050565b600081519050919050565b600082825260208201905092915050565b60006200052f8262000536565b9050919050565b600073ffffffffffffffffffffffffffffffffffffffff82169050919050565b6000819050919050565b60006200056d8262000574565b9050919050565b6000620005818262000588565b9050919050565b6000620005958262000536565b9050919050565b60005b83811015620005bc5780820151818401526020810190506200059f565b83811115620005cc576000848401525b50505050565b6000601f19601f8301169050919050565b620005ee8162000522565b8114620005fa57600080fd5b50565b6115d1806200060d6000396000f3fe6080604052600436106100dd5760003560e01c8063b98e82eb1161007f578063dd93b52e11610059578063dd93b52e146102a5578063e2338009146102d0578063f029c24b146102f9578063f8b2cb4f14610324576100dd565b8063b98e82eb14610233578063bbe963e114610270578063d0e30db01461027a576100dd565b80635f9297af116100bb5780635f9297af146101755780638784f04e146101a057806390b98a11146101cb578063b298c14f14610208576100dd565b80630e9032df146100e25780631c5ee3bd1461010d57806327e235e314610138575b600080fd5b3480156100ee57600080fd5b506100f7610361565b60405161010491906111e7565b60405180910390f35b34801561011957600080fd5b50610122610387565b60405161012f91906113c0565b60405180910390f35b34801561014457600080fd5b5061015f600480360361015a9190810190610df5565b61038d565b60405161016c91906113c0565b60405180910390f35b34801561018157600080fd5b5061018a6103a5565b60405161019791906113c0565b60405180910390f35b3480156101ac57600080fd5b506101b56103ab565b6040516101c291906113c0565b60405180910390f35b3480156101d757600080fd5b506101f260048036036101ed9190810190610e1e565b6103b5565b6040516101ff91906112c9565b60405180910390f35b34801561021457600080fd5b5061021d6104e7565b60405161022a91906112c9565b60405180910390f35b34801561023f57600080fd5b5061025a60048036036102559190810190610e5a565b6104fa565b60405161026791906112c9565b60405180910390f35b61027861060c565b005b34801561028657600080fd5b5061028f61080c565b60405161029c91906113c0565b60405180910390f35b3480156102b157600080fd5b506102ba610812565b6040516102c791906112c9565b60405180910390f35b3480156102dc57600080fd5b506102f760048036036102f29190810190610e5a565b610825565b005b34801561030557600080fd5b5061030e610d08565b60405161031b91906111e7565b60405180910390f35b34801561033057600080fd5b5061034b60048036036103469190810190610df5565b610d2e565b60405161035891906113c0565b60405180910390f35b600460009054906101000a900473ffffffffffffffffffffffffffffffffffffffff1681565b60075481565b60026020528060005260406000206000915090505481565b60085481565b6000600654905090565b600081600260003373ffffffffffffffffffffffffffffffffffffffff1673ffffffffffffffffffffffffffffffffffffffff16815260200190815260200160002054101561040757600090506104e1565b81600260003373ffffffffffffffffffffffffffffffffffffffff1673ffffffffffffffffffffffffffffffffffffffff1681526020019081526020016000206000828254039250508190555081600260008573ffffffffffffffffffffffffffffffffffffffff1673ffffffffffffffffffffffffffffffffffffffff168152602001908152602001600020600082825401925050819055507ffeb0ddee7549ed621231b57ded1c87e0069c8c94cb5ee7c0ff20a09ebc9e58293384846040516104d493929190611269565b60405180910390a1600190505b92915050565b600960019054906101000a900460ff1681565b600080858584604051602001610512939291906111aa565b604051602081830303815290604052805190602001206040516020016105389190611184565b60405160208183030381529060405280519060200120905060008060006020870151925060408701519150606087015160001a9050600060018583868660405160008152602001604052604051610592949392919061131b565b6020604051602081039080840390855afa1580156105b4573d6000803e3d6000fd5b5050506020604051035190507fce55dc4204b98bcb97cabe9a18aac7facfef76160618602df9a8f96b6e1a7e8b8582306040516105f3939291906112e4565b60405180910390a1600195505050505050949350505050565b33600560006101000a81548173ffffffffffffffffffffffffffffffffffffffff021916908373ffffffffffffffffffffffffffffffffffffffff160217905550600560009054906101000a900473ffffffffffffffffffffffffffffffffffffffff1673ffffffffffffffffffffffffffffffffffffffff16600460009054906101000a900473ffffffffffffffffffffffffffffffffffffffff1673ffffffffffffffffffffffffffffffffffffffff1614156106ca57600080fd5b60065434146106d857600080fd5b600654600260003373ffffffffffffffffffffffffffffffffffffffff1673ffffffffffffffffffffffffffffffffffffffff168152602001908152602001600020819055506000809054906101000a900473ffffffffffffffffffffffffffffffffffffffff1673ffffffffffffffffffffffffffffffffffffffff1663a29263d8333060036040518463ffffffff1660e01b815260040161077d9392919061122b565b600060405180830381600087803b15801561079757600080fd5b505af11580156107ab573d6000803e3d6000fd5b505050507f0a9f9d399cd0abaa10ae7bf67ada8f3d73414fdf96e7c9ab9a0aeb91f6614ebf600560009054906101000a900473ffffffffffffffffffffffffffffffffffffffff16346040516108029291906112a0565b60405180910390a1565b60065481565b600960009054906101000a900460ff1681565b600073ffffffffffffffffffffffffffffffffffffffff16600560009054906101000a900473ffffffffffffffffffffffffffffffffffffffff1673ffffffffffffffffffffffffffffffffffffffff1614156108b7576040517f08c379a00000000000000000000000000000000000000000000000000000000081526004016108ae906113a0565b60405180910390fd5b60418251146108fb576040517f08c379a00000000000000000000000000000000000000000000000000000000081526004016108f290611360565b60405180910390fd5b600460009054906101000a900473ffffffffffffffffffffffffffffffffffffffff1673ffffffffffffffffffffffffffffffffffffffff168173ffffffffffffffffffffffffffffffffffffffff1614806109a45750600560009054906101000a900473ffffffffffffffffffffffffffffffffffffffff1673ffffffffffffffffffffffffffffffffffffffff168173ffffffffffffffffffffffffffffffffffffffff16145b6109e3576040517f08c379a00000000000000000000000000000000000000000000000000000000081526004016109da90611380565b60405180910390fd5b6109ef848484846104fa565b6109f857600080fd5b600460009054906101000a900473ffffffffffffffffffffffffffffffffffffffff1673ffffffffffffffffffffffffffffffffffffffff168173ffffffffffffffffffffffffffffffffffffffff161415610a7557836007819055506001600960006101000a81548160ff021916908315150217905550610a98565b826008819055506001600960016101000a81548160ff0219169083151502179055505b600460009054906101000a900473ffffffffffffffffffffffffffffffffffffffff1673ffffffffffffffffffffffffffffffffffffffff166108fc671bc16d674ec800009081150290604051600060405180830381858888f19350505050158015610b08573d6000803e3d6000fd5b50600960009054906101000a900460ff168015610b315750600960019054906101000a900460ff165b15610d0257600560009054906101000a900473ffffffffffffffffffffffffffffffffffffffff1673ffffffffffffffffffffffffffffffffffffffff166108fc6008549081150290604051600060405180830381858888f19350505050158015610ba0573d6000803e3d6000fd5b506000809054906101000a900473ffffffffffffffffffffffffffffffffffffffff1673ffffffffffffffffffffffffffffffffffffffff1663615e1590600460009054906101000a900473ffffffffffffffffffffffffffffffffffffffff16306040518363ffffffff1660e01b8152600401610c1f929190611202565b600060405180830381600087803b158015610c3957600080fd5b505af1158015610c4d573d6000803e3d6000fd5b505050506000809054906101000a900473ffffffffffffffffffffffffffffffffffffffff1673ffffffffffffffffffffffffffffffffffffffff1663615e1590600560009054906101000a900473ffffffffffffffffffffffffffffffffffffffff16306040518363ffffffff1660e01b8152600401610ccf929190611202565b600060405180830381600087803b158015610ce957600080fd5b505af1158015610cfd573d6000803e3d6000fd5b505050505b50505050565b600560009054906101000a900473ffffffffffffffffffffffffffffffffffffffff1681565b6000600260008373ffffffffffffffffffffffffffffffffffffffff1673ffffffffffffffffffffffffffffffffffffffff168152602001908152602001600020549050919050565b600081359050610d8681611560565b92915050565b600082601f830112610d9d57600080fd5b8135610db0610dab82611408565b6113db565b91508082526020830160208301858383011115610dcc57600080fd5b610dd783828461150c565b50505092915050565b600081359050610def81611577565b92915050565b600060208284031215610e0757600080fd5b6000610e1584828501610d77565b91505092915050565b60008060408385031215610e3157600080fd5b6000610e3f85828601610d77565b9250506020610e5085828601610de0565b9150509250929050565b60008060008060808587031215610e7057600080fd5b6000610e7e87828801610de0565b9450506020610e8f87828801610de0565b935050604085013567ffffffffffffffff811115610eac57600080fd5b610eb887828801610d8c565b9250506060610ec987828801610d77565b91505092959194509250565b610ede816114d6565b82525050565b610eed81611477565b82525050565b610efc81611465565b82525050565b610f13610f0e82611465565b61151b565b82525050565b610f2281611489565b82525050565b610f3181611495565b82525050565b610f48610f4382611495565b61152d565b82525050565b600081546001811660008114610f6b5760018114610f9157610fd5565b607f6002830416610f7c8187611449565b955060ff198316865260208601935050610fd5565b60028204610f9f8187611449565b9550610faa85611434565b60005b82811015610fcc57815481890152600182019150602081019050610fad565b80880195505050505b505092915050565b6000610fea602483611449565b91507f546865206c656e677468206f6620746865206d65737361676520697320696e7660008301527f616c6964000000000000000000000000000000000000000000000000000000006020830152604082019050919050565b6000611050601c8361145a565b91507f19457468657265756d205369676e6564204d6573736167653a0a3332000000006000830152601c82019050919050565b6000611090603283611449565b91507f596f75206d7573742075736520612076616c69642061646472657373206f662060008301527f6f6e65206f662074686520706c617965727300000000000000000000000000006020830152604082019050919050565b60006110f6602483611449565b91507f5468652061646472657373206f662074686520706c6179657220697320696e7660008301527f616c6964000000000000000000000000000000000000000000000000000000006020830152604082019050919050565b611158816114bf565b82525050565b61116f61116a826114bf565b611549565b82525050565b61117e816114c9565b82525050565b600061118f82611043565b915061119b8284610f37565b60208201915081905092915050565b60006111b6828661115e565b6020820191506111c6828561115e565b6020820191506111d68284610f02565b601482019150819050949350505050565b60006020820190506111fc6000830184610ee4565b92915050565b60006040820190506112176000830185610ed5565b6112246020830184610ef3565b9392505050565b60006060820190506112406000830186610ed5565b61124d6020830185610ef3565b818103604083015261125f8184610f4e565b9050949350505050565b600060608201905061127e6000830186610ed5565b61128b6020830185610ef3565b611298604083018461114f565b949350505050565b60006040820190506112b56000830185610ed5565b6112c2602083018461114f565b9392505050565b60006020820190506112de6000830184610f19565b92915050565b60006060820190506112f96000830186610f28565b6113066020830185610ef3565b6113136040830184610ef3565b949350505050565b60006080820190506113306000830187610f28565b61133d6020830186611175565b61134a6040830185610f28565b6113576060830184610f28565b95945050505050565b6000602082019050818103600083015261137981610fdd565b9050919050565b6000602082019050818103600083015261139981611083565b9050919050565b600060208201905081810360008301526113b9816110e9565b9050919050565b60006020820190506113d5600083018461114f565b92915050565b6000604051905081810181811067ffffffffffffffff821117156113fe57600080fd5b8060405250919050565b600067ffffffffffffffff82111561141f57600080fd5b601f19601f8301169050602081019050919050565b60008190508160005260206000209050919050565b600082825260208201905092915050565b600081905092915050565b60006114708261149f565b9050919050565b60006114828261149f565b9050919050565b60008115159050919050565b6000819050919050565b600073ffffffffffffffffffffffffffffffffffffffff82169050919050565b6000819050919050565b600060ff82169050919050565b60006114e1826114e8565b9050919050565b60006114f3826114fa565b9050919050565b60006115058261149f565b9050919050565b82818337600083830152505050565b600061152682611537565b9050919050565b6000819050919050565b600061154282611553565b9050919050565b6000819050919050565b60008160601b9050919050565b61156981611465565b811461157457600080fd5b50565b611580816114bf565b811461158b57600080fd5b5056fea365627a7a72315820510cff3b7ce0330a538e93fa43179aabc2c604d4c279f5588473b80bbe2a1b9c6c6578706572696d656e74616cf564736f6c63430005100040",
  "source": "pragma solidity ^0.5.0;\r\npragma experimental ABIEncoderV2;\r\n\r\n\r\ncontract Mapping {\r\n  struct data {\r\n      address channel;\r\n      string nickname;\r\n  }\r\n  function set(address user_addr, address channel_addr, string memory nickname) public{}\r\n  function del(address party, address channel) public{}\r\n  function get(address user_addr) public view returns (data[] memory){}\r\n}\r\n\r\n/**\r\n *\r\n * @dev Ethereum payment channels allow for off-chain transactions with an on-chain\r\n * settlement. In this implementation, a party (member1) can open a channel with a \r\n * deposit, expiration, and member2. The member1 can then sign transactions off-chain\r\n * and send them to the member2, who can submit one of these signed transactions to \r\n * chain to close and settle the channel.\r\n */\r\ncontract SimplePaymentChannel {\r\n    //using SafeMath for uint256;\r\n    //using ECRecovery for bytes32;\r\n\r\n    Mapping pairs;\r\n    address Mapping_addr;\r\n    \r\n    mapping (address => uint) public balances;\r\n    string nickname;\r\n\r\n    //============================================================================\r\n    // EVENTS\r\n    //============================================================================\r\n\r\n    event ChannelOpened_1(address user, uint256 deposit);\r\n    event ChannelOpened_2(address user, uint256 deposit);\r\n    event ChannelClosed(uint256 member1Balance, uint256 member2Balance);\r\n    event Checkpassed(bytes32 message, address recover, address shouldbe);\r\n    event coinsent(address sender, address receiver, uint256 amount);\r\n\r\n    // Creator of channel\r\n    address payable public member1;\r\n    // member2 of channel\r\n    address payable public member2;\r\n    // deposit amount\r\n    uint256 public deposit;\r\n    \r\n    uint256 public member1Balance;\r\n    uint256 public member2Balance;\r\n    bool public isMember1BalanceSetUp;\r\n    bool public isMember2BalanceSetUp;\r\n\r\n    //============================================================================\r\n    // PUBLIC FUNCTIONS\r\n    //============================================================================\r\n\r\n    /**\r\n    * @dev Constructor\r\n    */\r\n    constructor(address _t, string memory groupname) public payable {\r\n        pairs = Mapping(_t);\r\n        Mapping_addr = _t;\r\n\r\n        member1 = msg.sender;\r\n        deposit = msg.value;\r\n        balances[msg.sender] = deposit;\r\n        nickname = groupname;\r\n\r\n        pairs.set(msg.sender,address(this),groupname);\r\n        emit ChannelOpened_1(member1, msg.value);\r\n    }\r\n\r\n    function showdeposit() public view returns(uint256){\r\n        return deposit;\r\n    }\r\n    /**\r\n    * @dev member2 set up\r\n    */    \r\n    // function setupmember2(bytes memory _signedMessage) public payable {\r\n    //     member2 = msg.sender;\r\n    //     require(member1 != member2);  \r\n    //     require(msg.value == deposit);\r\n    //     bytes32 message = keccak256(abi.encodePacked(\"\\x19Ethereum Signed Message:\\n32\", keccak256(abi.encodePacked(member1, deposit))));\r\n    //     bytes32 r;\r\n    //     bytes32 s;\r\n    //     uint8 v;\r\n    //     assembly {\r\n    //         r := mload(add(_signedMessage, 32))\r\n    //         s := mload(add(_signedMessage, 64))\r\n    //         v := byte(0, mload(add(_signedMessage, 96)))\r\n    //     }\r\n\r\n    //     address originalSigner = ecrecover(message, v, r, s);\r\n    //     //uncommemt when we have the signed message\r\n    //     //require(originalSigner == member1);\r\n    //     balances[msg.sender] = deposit;\r\n    //     emit ChannelOpened_2(member2, msg.value);\r\n    // }\r\n    \r\n    function setupmember2() public payable {\r\n        member2 = msg.sender;\r\n        require(member1 != member2);  \r\n        require(msg.value == deposit);\r\n        balances[msg.sender] = deposit;\r\n        pairs.set(msg.sender,address(this),nickname);\r\n        emit ChannelOpened_2(member2, msg.value);\r\n    }\r\n\r\n\r\n    /**\r\n    * @dev Close a channel with a signed message \r\n    * @param _balance1 uint256 The balance agreed to by the member1 in their signed message\r\n    * @param _balance2 uint256 The balance agreed to by the member2 in their signed message\r\n    * @param _signedMessage bytes The signed hash of the balance\r\n    */\r\n    function closeChannel(uint256 _balance1, uint256 _balance2, bytes memory _signedMessage, address addressOfMessage) public {\r\n        require(member2 != address(0), 'The address of the player is invalid');\r\n        require(_signedMessage.length == 65, 'The length of the message is invalid');\r\n        require(addressOfMessage == member1 || addressOfMessage == member2, 'You must use a valid address of one of the players');\r\n        \r\n        require(isValidSignature(_balance1, _balance2, _signedMessage, addressOfMessage));\r\n\r\n        if(addressOfMessage == member1) {\r\n            member1Balance = _balance1;\r\n            isMember1BalanceSetUp = true;\r\n        } else {\r\n            member2Balance = _balance2;\r\n            isMember2BalanceSetUp = true;\r\n        }\r\n        member1.transfer(2 ether);\r\n        if(isMember1BalanceSetUp && isMember2BalanceSetUp) {\r\n            member2.transfer(member2Balance);\r\n            pairs.del(member1, address(this));\r\n            pairs.del(member2, address(this));\r\n        }\r\n        // selfdestruct();\r\n    }\r\n\r\n\r\n\r\n    //============================================================================\r\n    // INTERNAL FUNCTIONS\r\n    //============================================================================\r\n\r\n    /**\r\n    * @dev Derive and verify member1 address from signed message and message hash\r\n    * @param _balance1 uint256 The balance agreed to by the member1 in their signed message\r\n    * @param _signedMessage bytes The signed hash of the balance by the member1\r\n    */\r\n    function isValidSignature (uint256 _balance1, uint256 _balance2, bytes memory _signedMessage, address addressOfMessage)\r\n        public\r\n        returns (bool)\r\n    {\r\n        bytes32 message = keccak256(abi.encodePacked(\"\\x19Ethereum Signed Message:\\n32\", keccak256(abi.encodePacked(_balance1, _balance2, addressOfMessage))));\r\n        bytes32 r;\r\n        bytes32 s;\r\n        uint8 v;\r\n        assembly {\r\n            r := mload(add(_signedMessage, 32))\r\n            s := mload(add(_signedMessage, 64))\r\n            v := byte(0, mload(add(_signedMessage, 96)))\r\n        }\r\n\r\n        address originalSigner = ecrecover(message, v, r, s);\r\n        emit Checkpassed(message, originalSigner, address(this));\r\n        //uncommemt when we have the signed message\r\n        //require(originalSigner == addressOfMessage, 'The signer must be the original address');\r\n        return true;\r\n    }\r\n\r\n    \r\n\r\n    function sendCoin(address receiver, uint amount) public returns(bool sufficient) {\r\n\r\n\t\tif (balances[msg.sender] < amount) return false;\r\n\t\tbalances[msg.sender] -= amount;\r\n\t\tbalances[receiver] += amount;\r\n        emit coinsent(msg.sender, receiver, amount);\r\n\t\treturn true;\r\n\t}\r\n\r\n\r\n\tfunction getBalance(address addr) public view returns(uint) {\r\n\t\treturn balances[addr];\r\n\t}\r\n}\r\n\r\n//  0xAb8483F64d9C6d1EcF9b849Ae677dD3315835cb2\r\n// 0x5B38Da6a701c568545dCfcB03FcB875f56beddC4\r\n// 0xaa26cd86f4b65b9ae75313f11efe27f6a9a402e80103ca347aee4c070144b7c7\r\n",
  "sourcePath": "D:\\Austin\\blockchain\\project\\splitcoinwise\\contracts\\StateChannel.sol",
  "compiler": {
    "name": "solc",
    "version": "0.5.16+commit.9c3226ce.Emscripten.clang"
  },
  "schemaVersion": "3.4.7",
  "updatedAt": "2022-05-01T03:34:39.020Z",
  "devdoc": {
    "details": "Ethereum payment channels allow for off-chain transactions with an on-chain settlement. In this implementation, a party (member1) can open a channel with a  deposit, expiration, and member2. The member1 can then sign transactions off-chain and send them to the member2, who can submit one of these signed transactions to  chain to close and settle the channel.",
    "methods": {
      "closeChannel(uint256,uint256,bytes,address)": {
        "details": "Close a channel with a signed message ",
        "params": {
          "_balance1": "uint256 The balance agreed to by the member1 in their signed message",
          "_balance2": "uint256 The balance agreed to by the member2 in their signed message",
          "_signedMessage": "bytes The signed hash of the balance"
        }
      },
      "constructor": {
        "details": "Constructor"
      },
      "isValidSignature(uint256,uint256,bytes,address)": {
        "details": "Derive and verify member1 address from signed message and message hash",
        "params": {
          "_balance1": "uint256 The balance agreed to by the member1 in their signed message",
          "_signedMessage": "bytes The signed hash of the balance by the member1"
        }
      },
      "setupmember2()": {
        "details": "member2 set up"
      }
    }
  },
  "userdoc": {
    "methods": {}
  }
}